:020000040800F2
:1000000070060020350200083D0200083F0200088B
:1000100041020008430200084502000800000000F9
:10002000000000000000000000000000470200087F
:1000300049020008000000004B020008F10200081D
:100040004F0200084F0200084F0200084F0200084C
:100050004F0200084F0200084F0200084F0200083C
:100060004F0200084F0200084F0200084F0200082C
:100070004F0200084F0200084F0200084F0200081C
:100080004F0200084F0200084F0200080000000065
:100090000000000000000000000000004F02000807
:1000A0004F0200084F0200084F0200084F020008EC
:1000B0004F0200084F0200084F0200084F020008DC
:1000C0004F0200084F0200084F0200084F020008CC
:1000D0004F0200084F0200084F0200080000000015
:1000E0004F0200084F0200084F0200080000000005
:1000F0000000000000000000000000004F020008A7
:10010000000000004F0200084F0200084F020008E4
:1001100000000000000000000000000000000000DF
:100120004F0200084F0200084F0200084F0200086B
:100130004F02000800000000000000000000000066
:100140000000000000000000000000004F02000856
:100150004F0200084F0200084F0200084F0200083B
:100160004F0200084F0200080000000000000000DD
:10017000000000000000000000000000000000007F
:10018000000000004F020008000000000000000016
:100190004F02000800F002F800F03CF80AA090E8D6
:1001A000000C82448344AAF10107DA4501D100F032
:1001B00031F8AFF2090EBAE80F0013F0010F18BFC3
:1001C000FB1A43F001031847E80100000802000091
:1001D000103A24BF78C878C1FAD8520724BF30C873
:1001E00030C144BF04680C60704700000023002445
:1001F00000250026103A28BF78C1FBD8520728BF37
:1002000030C148BF0B6070471FB500F0C4F81FBD78
:1002100010B510BD00F031F81146FFF7F5FF00F002
:100220007FF800F04FF803B4FFF7F2FF03BC00F0D3
:1002300057F800000948804709480047FEE7FEE7F5
:10024000FEE7FEE7FEE7FEE7FEE7FEE7FEE7FEE786
:1002500004480549054A064B70470000050300089D
:100260009501000870000020700600207002002038
:1002700070020020704770477047754600F02CF8F8
:10028000AE4605006946534620F00700854618B083
:1002900020B5FFF7DDFFBDE820404FF000064FF02E
:1002A00000074FF000084FF0000BAC46ACE8C00967
:1002B000ACE8C009ACE8C009ACE8C00921F007010E
:1002C0008D46704710B50446AFF300802046BDE868
:1002D0001040FFF7A8BF000000487047080000204A
:1002E00001491820ABBEFEE726000200704700005F
:1002F00040F26800C2F20000018800291CBF0139E9
:10030000018070474EF68850CEF20000016841F43B
:10031000700101604FF0006140F8801C70470000E0
:1003200040F20000C2F20000006844F6D351C1F26E
:100330006201A0FB01014FF0FF3000EB91110020A2
:10034000B0EB116F0DD14EF21002CEF200025160EF
:100350004EF62351CEF20001F0230B70072190607E
:10036000116043F63002C4F20202136840F61441F1
:1003700043F00803C4F2020113604FF0AA4241F8AF
:10038000142C4FF4104241F8100C41F80C0C00BF33
:100390000A600860FCE7F1EE100A4FF6FF71C0F248
:1003A000C03120EA010040F04070E1EE100A7047D1
:1003B000D00300080000002004000000D001000865
:1003C000D40300080800002068060000EC010008C3
:0403D0000024F40011
:0400000508000235B8
:00000001FF
